:1000000005308A00A92D0000FF00030E8301A10026
:100010000A08A0008A010408A2007708A300780853
:10002000A4007908A5007A08A600831383128C30F7
:100030008400001F1D280C1B2E2822088400230882
:10004000F7002408F8002508F9002608FA0020081F
:100050008A00210E8300FF0E7F0E09008A110A120A
:100060004E280A108A100A11820728340C340134F1
:1000700006344C3084008313000803194D280130E6
:10008000F800F701F70B4228F80B41284A30F70037
:10009000F70B48284B28800B3F280800DF308316D9
:1000A000870083128716C830CC003920DF308316D2
:1000B0008700831287120C138A110A121D280C1054
:1000C000A024D3244B000A10A02AD9235526C126E8
:1000D000C12949008C2541294127CC244B008C2083
:1000E00059224927CC244B00470EF039F7000F3036
:1000F000060577048600000006147E280610080016
:100100000608F700060E0F39F800080083160610DF
:1001100086100611831286100F3083160605F038FC
:10012000860083120615000006140000802078085F
:10013000C700061000000614000080207808C600E2
:1001400006100F308316060586008312470EF7004F
:10015000F030F70577084604F8007808C600C61B9B
:100160008C28441C861044188614000006110000D8
:100170000610450EC6000F30C6054608C70074209D
:1001800045080F39C600C700742008000F308316D9
:1001900006058600061086100611831286100611C9
:1001A0000610A7018B1BA7178B130F30CC0039202B
:1001B000A71B8B170130B2003208033C031CEE284A
:1001C0000330C7007420A7018B1BA7178B130530C2
:1001D000CC003920A71B8B17B20ADC280230C700DD
:1001E0007420A7018B1BA7178B130530CC00392077
:1001F000A71B8B17B2013208033C031C08293208E5
:100200003120B300C4013308C5008620B20AFB28A0
:100210008A110A12D22D410B0E2911294030C20039
:100220001229C20101304002C20742088038C300CF
:10023000C4014308C500862008003F08073A031997
:100240002B290B3A03193029063A03193E29023AA1
:100250000319442949290130C000C1000B214E294E
:10026000C4010130C5008620A7018B1BA7178B1383
:100270000230CC003920A71B8B174E290130C0005B
:100280000230C1000B214E29C4011030C500862068
:100290004E290130C4003F08C500862008000B0825
:1002A000B2008B13831603178C170C140000000088
:1002B00083120C087F39031996290313B30003171F
:1002C0000D080313B40003170F080313B500330818
:1002D000BF001D21340803178D00031335080317D1
:1002E0008F0083168C170C140000000083120C0D75
:1002F0000E0D7F39031996290313B30003170D0858
:100300000313B40003170F080313B5003308BF002D
:100310001D21340803178D000313350803178F00C0
:100320008D0A03198F0A0313522903170313B21BF3
:100330008B1708008E30F7003308F8003208F900F8
:10034000FA01F808031DAE297908F800F901083010
:10035000F702F808031DAE29F701B6290310F81BB0
:10036000B529F90DF80DF703AE29F8138A110A1211
:10037000062E360803197E2AC2003A0803197E2A7F
:10038000C202031CC8297F30C20703187E2ACE2967
:100390008130C202031C7E2A03197E2A4208F7001C
:1003A000F801F901FA01C1013708C000C017380887
:1003B000BF003908BE001930C2003D08BE02031854
:1003C000F1290130BF020318F129C0020318F129F5
:1003D000C1020318F129C10AC00ABF0A3D08BE07BD
:1003E000232A3C08BF0203180C2A0130C00203185C
:1003F0000C2AC10203180C2AC10AC00A3C08BF0714
:100400003D08BE07031C232ABF0A031D232AC00A76
:10041000031D232AC10A232A3B088038C00203187F
:10042000222A0130C1020318222AC10A3B0880385F
:10043000C0073C08BF07031C002AC00A031D002A8E
:10044000C10A002A7A14C20B262A312A0310BE0DD3
:10045000BF0DC00DC10D0310FA0DF90DF80DC30D40
:10046000DD29431C392A0310F80CF90CFA0CC30CD3
:100470003C2AF70303197E2AC31B652A0310BE0D0D
:10048000BF0DC00DC10D3D08BE020318512A013039
:10049000BF020318512AC0020318512AC102031CCB
:1004A000742A3C08BF0203185C2A0130C0020318FA
:1004B0005C2AC102031C742A3B088038C00203185E
:1004C000652A0130C102031C742AFA0A031D742A2A
:1004D000F90A031D742AF80A031D742AF70A03197E
:1004E0007E2AF80CF90CFA0C3708C2003B08C20649
:1004F000C21F7C2AF817822AF813822AF701F80112
:10050000F901FA0108003F080319F32AC70043085C
:100510000319F32AC7070318942A7F30C702031C64
:10052000F32A0319F32A982A8130C7070318F32AFC
:100530004708F700F801F901FA014008CB00CB1792
:100540004108CA004208C9001830C700C801491C48
:10055000C12A4608FA07031CB32AF90A031DB32A65
:10056000F80A0319C8174508F907031CBA2AF80A3C
:100570000319C8174408C100C1174108F807031838
:10058000C817C80DF80CF90CFA0CCB0CCA0CC90C26
:100590000310C70BA62A0130F7070318F32AF81B2C
:1005A000D82ACB0DFA0DF90DF80DF7030319F32A2C
:1005B000CB1FE92AFA0A031DE92AF90A031DE92AD1
:1005C000F80A031DE92AF80CF90CFA0CF70A0319CA
:1005D000F32A4008C8004408C806C81FF12AF817C3
:1005E000F72AF813F72AF701F801F901FA010800D0
:1005F00080308318BB06C001C1013708BF003B082B
:10060000BF0636080319E82BBE00F7003A080319A5
:10061000F12BBE0203198D2B031C4B2B3B08C4008E
:10062000C4173C08C3003D08C200C1010310C40C3C
:10063000C30CC20CC10CBE0B152BBF1F222B4014C8
:10064000052C40103E1040163930840083131A2CBC
:100650004012BF1B352B3E1C402BC40CC30CC20CDC
:10066000C10CF70A0319002C402BC41B432B0310A9
:10067000C10DC20DC30DC40DF7030319002C352B9A
:100680004017AD2B40133708BF00BF1F492BC417BD
:10069000F92BC413F92B3A08BE00F7003608BE0246
:1006A0003708C400C4173808C3003908C200C101A4
:1006B0000310C40CC30CC20CC10CBE0B572BBF1FC4
:1006C000642BC014052CC0103E10C0163D308400B1
:1006D00083131A2CC012BF1B772B3E1C822BC40C19
:1006E000C30CC20CC10CF70A0319002C822BC41BCB
:1006F000852B0310C10DC20DC30DC40DF7030319E3
:10070000002C772BC017AD2BC0133B08BF00BF1FB9
:100710008B2BC417F92BC413F92B3B08C400C41747
:100720003C08C3003D08C200BF1F9A2BC4134015EC
:10073000052C4011C1013E103930840083131A2C5E
:10074000BF1BC32B3708BF003E1CAD2BC40CC30C12
:10075000C20CC10CF70A0319002CC11FBE2BC20A20
:10076000031DBE2BC30A031DBE2BC40A031DBE2BD3
:10077000C40CC30CC20CF70A0319002C401B422BFB
:10078000C01B842BE22B8030C406C41FCB2B052C4E
:100790003B08BF00D82B3708BF00C408031DD82B67
:1007A000C308031DD82BC208031DD82BF701F92B52
:1007B000C41BE22B0310C10DC20DC30DC40DF70BFA
:1007C000D82B002CBF1FE62BC417F92BC413F92B11
:1007D0003A08F7003B08C4003C08C3003D08C200CB
:1007E000F92B3608F7003708C4003808C300390869
:1007F000C2004408F8004308F9004208FA00382C07
:10080000F701F801F901FA01382CC101C209C30945
:10081000C409C109C10A031D132CC20A031D132CEC
:10082000C30A0319C40A4018212BC018632B4019AE
:10083000992BC82B0008C207031C242CC30A031DD4
:10084000242CC40A03193E1484030008C307031CA4
:100850002C2CC40A03193E1484030008801F803A1C
:10086000C40703183E14401A282BC01A6A2BA02B69
:100870008A110A125D2E3308BA003708BA06BA1F69
:10088000462C03110310B31B0314792C3308BA0050
:100890003608BB003208BB020319542CBA1F792C4E
:1008A0000308013A8300792C3708BB003308BB02E8
:1008B0000319602CBA1F792C0308013A8300792CA4
:1008C0003808BB003408BB0203196C2CBA1F792C02
:1008D0000308013A8300792C3908BB003508BB02B4
:1008E0000319782CBA1F792C0308013A8300792C5C
:1008F0000310080083187F2C473084008313F7010E
:10090000F801F901FA01C701C801C901CA01460885
:100910004504440443040319BD2C2030CB000310CC
:10092000BF0DC00DC10DC20DC70DC80DC90DCA0D3B
:1009300046084A02031DA62C45084902031DA62CA1
:1009400044084802031DA62C43084702031CB72C89
:100950004308C7024408031C440FC8024508031C8F
:10096000450FC9024608031C460FCA020314F70DBF
:10097000F80DF90DFA0DCB0B8F2C47088000840A77
:1009800048088000840A49088000840A4A088000D8
:1009900008000408B7003608B9000319E82C350828
:1009A000C2003408C1003308C0003208BF00C601CD
:1009B000C5012030C4008230C30083227A08B5000C
:1009C0007908B4007808B3007708B200B90BCF2CCF
:1009D0003508C2003408C1003308C0003208BF0027
:1009E0003F08B63CBF00FA014008C300C01703101F
:1009F000C00CC10CC20CFA0CF90CF80CF70CBF0BB4
:100A0000F72CC31F0E2DF709F809F909FA09F70A9F
:100A10000319F80A0319F90A0319FA0A7A08B50042
:100A20007908B4007808B3007708B200B51F252D07
:100A3000B703B716B209B309B409B509B20A031965
:100A4000B30A0319B40A0319B50A3B30BE009A3041
:100A5000BD00CA30BC00BB010A30B900360803191A
:100A6000B70A83143230840083133508C200340877
:100A7000C1003308C0003208BF003E08C6003D0870
:100A8000C5003C08C4003B08C3007A247808F70876
:100A9000031D5D2D360A390203195D2D3708031930
:100AA0005F2D0F3939020319572D03188F2DB71BEE
:100AB0008F2D371B5F2D20308B2D2030B705B71EB3
:100AC0006D2DB7123608031DB7037708B7002D3018
:100AD000BF001D213708F700B70136083902031D92
:100AE0007B2D7708B7002E30BF001D213708F70097
:100AF0002030B70500303030B71E8B2DB7123608C6
:100B0000031DB7037708B7002D30BF001D2137083C
:100B1000F700B7013030F7077708BF001D218310B9
:100B20003E08C2003D08C1003C08C0003B08BF00B1
:100B3000C601C501C4010A30C3007A247A08BE0088
:100B40007908BD007808BC007708BB00B90B312DCF
:100B5000080083161F149F141F159F1107309C0057
:100B600083131F308305003087008600DF30870045
:100B70008312870120308316860083128601831634
:100B80001F1383121F139F1783169F1783121F149F
:100B900083161F109F101F119F110C17C030831256
:100BA0008B04C6285F3003178D0000308F000313BD
:100BB0004F21633003178D0000308F0003134F2146
:100BC0000430B200A7018B1BA7178B13FA30CC009F
:100BD0003920A71B8B17B20BE22D2830F8001F0815
:100BE000C73978049F000630F700F70BF52D000099
:100BF0001F151F19F92D83161E088312A8001E0841
:100C0000A9002908B3002808B2009A297A08B90077
:100C10007908B8007808B7007708B600BD01C03081
:100C2000BC007F30BB008830BA00B9217A08B5001B
:100C30007908B4007808B3007708B2007A08C200D7
:100C40007908C1007808C0007708BF00C601C50157
:100C50002030C4008130C30083227A08AD007908B7
:100C6000AC007808AB007708AA00B9014030B800A2
:100C70001C30B7008A30B6002D08BD002C08BC001F
:100C80002B08BB002A08BA00B9217A08B5007908F8
:100C9000B4007808B3007708B20083147A08B9006A
:100CA0007908B8007808B7007708B600BD01BC0124
:100CB0007A30BB008730BA00F82A7A08B500790884
:100CC000B4007808B3007708B2007A08B900790850
:100CD000B8007808B7007708B6003330BD00BC0014
:100CE0005330BB008030BA00B9217A08B1007908CE
:100CF000B0007808AF007708AE003108B5003008C2
:100D0000B4002F08B3002E08B200B901B80120309A
:100D1000B7008230B6003B240318902E031DB32E7B
:100D20006A3003178D0000308F0003134F210A3003
:100D3000BF001D212030BF001D210130840031087B
:100D4000B5003008B4002F08B3002E08B200B60179
:100D5000C9244C30BF001D215530BF001D21583023
:100D6000BF001D21ED2DB501B4014830B300863020
:100D7000B2003108B9003008B8002F08B7002E08BB
:100D8000B6003B24031CEA2E6F3003178D000030A1
:100D90008F0003134F210A30BF001D212030BF00F8
:100DA0001D212030BF001D21013084003108B50015
:100DB0003008B4002F08B3002E08B200B601C924D1
:100DC0004C30BF001D215530BF001D215830BF00E1
:100DD0001D21ED2D0C30BF001D212030BF001D2135
:100DE0002030BF001D21013084003108B5003008DB
:100DF000B4002F08B3002E08B200B601C9244C304D
:100E0000BF001D215530BF001D215830BF001D21DE
:040E1000ED2D630061
:02400E00313F40
:00000001FF
;PIC16F877A
;CRC=6375  CREATED="09-Tem-23 20:41"
