:020000040000FA
:0400000048EF05F0D0
:08000800056ED8CF06F0E0CF31
:1000100007F00001E9CF0DF0EACF08F0E1CF09F0D9
:10002000E2CF0AF0D9CF0BF0DACF0CF0F3CF14F017
:10003000F4CF15F0FACF16F000C00FF001C010F0A9
:1000400002C011F003C012F004C013F09DAC2CEFFD
:1000500000F09EBCA7EF00F00FC000F010C001F050
:1000600011C002F012C003F013C004F00E8E0DC0D8
:10007000E9FF08C0EAFF09C0E1FF0AC0E2FF0BC0C8
:10008000D9FF0CC0DAFF14C0F3FF15C0F4FF16C08F
:10009000FAFF055007C0E0FF06C0D8FF1000F2CFFE
:1000A0000EF0F29EF76AB80FF66E000EF722090006
:1000B000F5500EBEF28E1200280C0106F2CF0EF0A3
:1000C000F29EF76AD60FF66E000EF7220900F55081
:1000D0000EBEF28E12000C534943414B4C494B006B
:1000E000F2CF0EF0F29EF76AFA0FF66E000EF722CC
:1000F0000900F5500EBEF28E12000A202055594715
:100100002E00F2CF0EF0F29EF76A1C0FF66E010E73
:10011000F7220900F5500EBEF28E12000C446967FA
:10012000693D256C7500EA6A3D0EE96EEF500EE000
:10013000010E016E006A002EFED7012EFBD74A0E7B
:10014000006E002EFED700D0EF2EF2D7000C8B8A67
:10015000640E3D6EE8DF8B9A9E9C2CEF00F038B069
:1001600002D08A9001D08A8038B202D08A9201D01F
:100170008A8238B402D08A9401D08A8438B602D0F8
:100180008A9601D08A8600008A8A00D08A9A000C5A
:100190008A98130E006E002EFED700D0355202E072
:1001A0008A8801D08A9800008A9A3638376E0F0EF6
:1001B000371637C038F0D3DF36500F0B376E386E36
:1001C000CEDF000C8A988A9A186AF2BE188EF29EC8
:1001D0000F0E3D6EA8DF18BEF28E236A2350020870
:1001E0000EE3030E386EBBDF186AF2BE188EF29E65
:1001F000050E3D6E98DF18BEF28E232AEFD7020E51
:10020000386EADDF236A2350030817E3036A2350D7
:10021000F2CF24F0F29E43DF24BEF28E256E356AC3
:10022000366EB6DF186AF2BE188EF29E050E3D6E6F
:100230007ADF18BEF28E232AE6D767EF05F0322C5C
:1002400001D003D0400E336E01D0336A010E315C11
:10025000332633508009346E356A366E99DF57EF96
:1002600001F030500C0A05E0060A11E0020A14E021
:1002700018D0356A010E366E8BDF186AF2BE188E02
:10028000F29E020E3D6E4FDF18BEF28E10D0010EB0
:10029000316E020E326ED3D7356A100E366E78DFAD
:1002A00006D0010E356E30C036F072DF00D0000C83
:1002B0008E0E006E24C001F023C002F0036A0152CA
:1002C00009E102C001F0026A080E005E015202E17B
:1002D000006A08D0D89001BE04D00236013600066C
:1002E000F9D7019EA5EF05F03050D8B471D0006E5B
:1002F0003450D8B46DD0002604E3810E002668E2A5
:1003000004D07F0E005E64E363E031C038F0355006
:10031000381A318E358E33503702F4CF3AF03250DE
:100320003602F4CF03F0F3CF39F03702F3503A2618
:10033000F4503922000E032233503602F3503A268D
:10034000F4503922000E026A032202223150370291
:10035000F3503926F4500322000E022231503602A7
:10036000F3500326F4500222000E016A012233509A
:100370003502F3503926F4500322000E02220122E6
:1003800032503502F3500326F4500222000E0122AF
:1003900031503502F3500226F4500122002A01BEEA
:1003A00005D039360336023601360006000E39AE66
:1003B0000AD0032A02220122015005E1025003E182
:1003C000035001E1002A38BE018E38AE019E04D0F0
:1003D000006A016A026A036A000C2350D8B4A5D0EF
:1003E0002F6E2750D8B4A1D02F5E05E37F0E2F26A5
:1003F000D8B09BD006D0810E2F5ED8A096D0D8B4AE
:1004000094D02FC000F0016A026A036A2E6A24C0E9
:100410002DF02D8E25C02CF026C02BF0190E2F6E3E
:100420002A502B5E0DE2010E2C5E0AE22D5E08E2E0
:100430002E5E06E22E2A2D2A2C2A2A502B2628D080
:1004400029502C5E12E2010E2D5E0FE22E5E0DE2AF
:100450002E2A2D2A29502C262A502B2619E32C2A05
:1004600017E12D2A15E12E2A13D0285080092D5E80
:100470000EE2010E2E5E0BE22E2A285080092D2658
:1004800029502C26E9E32D2AE7E12E2AE5D703801F
:100490002F2E01D00BD0D8902B362C362D362E3661
:1004A000D8900336023601363036BAD730A006D09F
:1004B000D890013202320332303202D0000635E0E9
:1004C00030BE1ED0D8902B362C362D362E362A50E4
:1004D0002B5E07E2010E2C5E04E22D5E02E22E5E30
:1004E0001AE329502C5E05E2010E2D5E02E22E5E1B
:1004F00012E3285080092D5E03E2010E2E5E0BE30D
:10050000032A09E1022A07E1012A05E1002A0DE098
:1005100001320232033224C02FF028502F1A2FAE9E
:1005200002D0018E06D0019E04D0006A016A026AE0
:10053000036AE4EF05F0800ED8B22C1A316A326AF1
:1005400028C030F02C50301A2750D8B4DCD02F6E91
:10055000006E2B50D8B4E0D02F5ED8B481D03DE3EC
:100560002CC035F0358E2DC034F02EC033F0326AF9
:10057000D89035323432333232322F2EF8D730AE73
:1005800003D03180DDD031902F903188EA6A2A0E75
:10059000E96EE9D0319830BE0AD02FA013D03532A1
:1005A000343233323232002AD8B4C5D00BD035BE03
:1005B0000CD0D89032363336343635360006D8B4BF
:1005C000BAD0F5D7318C6BD0319C28C030F028AE32
:1005D00002D0358EA9D0359EA7D02BC02FF02BC0CE
:1005E00000F027502F5E28C035F0358E29C034F03A
:1005F0002AC033F0326AD890353234323332323254
:100600002F2EF8D730AE03D031829AD031922F906E
:10061000318AEA6A2E0EE96EA6D0319A30BE0AD02F
:100620002FA013D03532343233323232002AD8B4CC
:1006300082D00BD035BE0CD0D8903236333634361B
:1006400035360006D8B477D0F5D7318E28D0319E14
:100650002CC030F02CAE02D0358E66D0359E64D0E2
:100660002CC035F0358E2DC034F02EC033F030AEB6
:1006700004D0359E318464D03194326A2F90EA6A76
:100680002A0EE96E70D030BE1CD028C030F02FA0EA
:1006900006D03532343233323232002A4CE032AEB8
:1006A0000BD0332A09E1342A07E1352A05E1353236
:1006B00034323332002A3FE031BC86D731BEC7D74F
:1006C0001CD0800E351A35AE04D03AD02CC030F094
:1006D0000AD028C030F0355206E1345204E13352DA
:1006E00002E1006A21D035BE08D0D89032363336C8
:1006F00034363536002EF7D71ED030AE02D0358EC8
:1007000013D0359E11D02BC000F02CC035F02DC079
:1007100034F02EC033F008D027C000F028C035F0E8
:1007200029C034F02AC033F035C001F034C002F0E3
:1007300033C003F034D0006A016A026A036A2FD022
:10074000326A331E341E351E321E322A05E1332A28
:1007500003E1342A01E1352A31B015D731B256D739
:1007600031B48AD7B3D7EF50332605E3342A03E1F7
:10077000352AD8B42F80ED52EF50342603E3352AC2
:10078000D8B42F80ED52EF50EFBE01D0800A35264D
:10079000D8B02F8031B8FED631BA3FD774D7FBEF2F
:1007A00005F0EACF2CF0E9CF2BF02538F009276EC1
:1007B0002726E20F286E320F2A6E25500F0B2826AF
:1007C00028262A26E90F296E2926292624380F0BE8
:1007D00029262A2629362A362A1E2A3624500F0B85
:1007E0002A262736070E266E0A0E29062A26FDE33C
:1007F00028062926FDE327062826FDE326062726C8
:10080000FDE3EA6A260EE96E070E2B142B9CE926FF
:100810002A0EE95CD8B42B8CEF50006E08E12BBC9B
:1008200006D02BB813D02BB602D0200E03D02B86C7
:100830002B98300E0026EACF25F0E9CF24F000C037
:1008400030F00FDD25C0EAFF24C0E9FFEE502BACED
:10085000DFD716EF06F03050B608306E036A31C0AD
:1008600034F0318ED89031323232333203320232A8
:1008700001320032302EF6D734AE0BD0001E011EEE
:10088000021E031E002AD8B4012AD8B4022AD8B402
:10089000032AAFEF04F0006A016A026A036A386A49
:1008A000396A3A6A3B6A37503610351034102CE0FA
:1008B000200E3C6ED89030363136323633363836EC
:1008C00039363A363B3637503B5C08E136503A5CB5
:1008D00005E13550395C02E13450385C0FE33450A7
:1008E000385E3550D8A0353C395E3650D8A0363CFD
:1008F0003A5E3750D8A0373C3B5ED8800036013690
:10090000023603363C2ED6D7EA6A380EE96E000C62
:10091000E950286E27502A6E19E026C033F025C012
:1009200032F024C031F023C030F0376A366A200E2E
:10093000356E820E346ED8DC03C026F002C025F07E
:1009400001C024F000C023F02A2EE7D726C033F0E0
:1009500025C032F024C031F023C030F07CD703C072
:1009600026F002C025F001C024F000C023F026AE1E
:100970000DD02806288A231E241E251E261E232A63
:10098000D8B4242AD8B4252AD8B4262A3B0E2F6EF0
:100990009A0E2E6ECA0E2D6E2C6A0A0E2A6E2750E3
:1009A000D8B4282A26C033F025C032F024C031F054
:1009B00023C030F02FC037F02EC036F02DC035F0F8
:1009C0002CC034F068DF0150EFCF23F0ECCF24F0DF
:1009D000ECCF25F0ECCF26F000520FE127282A5C5F
:1009E0000CE028500CE00F0B2A5C01E037E228BE37
:1009F00035D028BC04D0200E2DD0200E281628AAD1
:100A00000CD0289A2750D8A428060050286E2D0E06
:100A1000306E27DC2850006E286A27502A5C0AE1D5
:100A20000050286E2E0E306E1CDC2850006E200EFA
:100A30002816000E300E28AA0DD0289A2750D8A4C8
:100A400028060050286E2D0E306E0BDC2850006EEC
:100A5000286A300E002600C030F003DC2FC033F0CF
:100A60002EC032F02DC031F02CC030F0376A366A1B
:100A7000356A0A0E346E0FDF03C02FF002C02EF06D
:100A800001C02DF000C02CF02A2E8CD72FEF06F0DD
:100A9000F86AD09E0D8EEA6AE96AC180C182C1847B
:100AA000C196000E946E936E9680968296848B6AA1
:100AB0008A6AC19CC29CC28EC18EC280C190C19202
:100AC000C194C1969D8CC00EF212E2EF00F0236A31
:100AD00023505EEC00F0232A006E306E31EC01F002
:100AE000090E235CF5E1236A235070EC00F0232A01
:100AF000006E306E31EC01F0070E235CF5E1040E60
:100B0000236E186AF2BE188EF29EFA0E3D6E93ECBA
:100B100000F018BEF28E232EF4D7280E016EC250BC
:100B2000C70B0110C26E060E006E002EFED700002D
:100B3000C284C2B4FED7C3CF19F0C4CF1AF01AC012
:100B400024F019C023F058EF01F0336A326A200E06
:100B5000316E770E306E03C037F002C036F001C040
:100B600035F000C034F074EC01F000C023F001C097
:100B700024F002C025F003C026F003C033F002C009
:100B800032F001C031F000C030F0376A366A7A0EB8
:100B9000356E880E346E74EC01F003C022F002C092
:100BA00021F001C020F000C01FF022C026F021C0BB
:100BB00025F020C024F01FC023F02A6A296A200EE5
:100BC000286E820E276E09D400C023F001C024F0E5
:100BD00002C025F003C026F0D89203C02AF002C05C
:100BE00029F001C028F000C027F02E6A2D6A2C6A77
:100BF000800E2B6EA0D403C01EF002C01DF001C0F9
:100C00001CF000C01BF0236A235081EC00F0232A63
:100C1000006E306E31EC01F0060E235CF5E1100E33
:100C2000E96E1AC025F019C024F0BBD50A0E306E4B
:100C300031EC01F0540E306E31EC01F03D0E306EAF
:100C400031EC01F0890EE96E1EC026F01DC025F0C2
:100C50001CC024F01BC023F0010E276E59D6DF0EF6
:100C6000306E31EC01F0430E306E31EC01F055D7AF
:020C700003007F
:020000040030CA
:0E00000000210D0E000181000FC00FE00F4027
:00000001FF
;PIC18F452
